{
  "_format": "hh-sol-artifact-1",
  "contractName": "SoulboundIdentity",
  "sourceName": "contracts/SoulboundIdentity.sol",
  "abi": [
    {
      "inputs": [
        {
          "internalType": "address",
          "name": "initialOwner",
          "type": "address"
        }
      ],
      "stateMutability": "nonpayable",
      "type": "constructor"
    },
    {
      "inputs": [
        {
          "internalType": "address",
          "name": "sender",
          "type": "address"
        },
        {
          "internalType": "uint256",
          "name": "tokenId",
          "type": "uint256"
        },
        {
          "internalType": "address",
          "name": "owner",
          "type": "address"
        }
      ],
      "name": "ERC721IncorrectOwner",
      "type": "error"
    },
    {
      "inputs": [
        {
          "internalType": "address",
          "name": "operator",
          "type": "address"
        },
        {
          "internalType": "uint256",
          "name": "tokenId",
          "type": "uint256"
        }
      ],
      "name": "ERC721InsufficientApproval",
      "type": "error"
    },
    {
      "inputs": [
        {
          "internalType": "address",
          "name": "approver",
          "type": "address"
        }
      ],
      "name": "ERC721InvalidApprover",
      "type": "error"
    },
    {
      "inputs": [
        {
          "internalType": "address",
          "name": "operator",
          "type": "address"
        }
      ],
      "name": "ERC721InvalidOperator",
      "type": "error"
    },
    {
      "inputs": [
        {
          "internalType": "address",
          "name": "owner",
          "type": "address"
        }
      ],
      "name": "ERC721InvalidOwner",
      "type": "error"
    },
    {
      "inputs": [
        {
          "internalType": "address",
          "name": "receiver",
          "type": "address"
        }
      ],
      "name": "ERC721InvalidReceiver",
      "type": "error"
    },
    {
      "inputs": [
        {
          "internalType": "address",
          "name": "sender",
          "type": "address"
        }
      ],
      "name": "ERC721InvalidSender",
      "type": "error"
    },
    {
      "inputs": [
        {
          "internalType": "uint256",
          "name": "tokenId",
          "type": "uint256"
        }
      ],
      "name": "ERC721NonexistentToken",
      "type": "error"
    },
    {
      "inputs": [
        {
          "internalType": "address",
          "name": "owner",
          "type": "address"
        }
      ],
      "name": "OwnableInvalidOwner",
      "type": "error"
    },
    {
      "inputs": [
        {
          "internalType": "address",
          "name": "account",
          "type": "address"
        }
      ],
      "name": "OwnableUnauthorizedAccount",
      "type": "error"
    },
    {
      "anonymous": false,
      "inputs": [
        {
          "indexed": true,
          "internalType": "address",
          "name": "owner",
          "type": "address"
        },
        {
          "indexed": true,
          "internalType": "address",
          "name": "approved",
          "type": "address"
        },
        {
          "indexed": true,
          "internalType": "uint256",
          "name": "tokenId",
          "type": "uint256"
        }
      ],
      "name": "Approval",
      "type": "event"
    },
    {
      "anonymous": false,
      "inputs": [
        {
          "indexed": true,
          "internalType": "address",
          "name": "owner",
          "type": "address"
        },
        {
          "indexed": true,
          "internalType": "address",
          "name": "operator",
          "type": "address"
        },
        {
          "indexed": false,
          "internalType": "bool",
          "name": "approved",
          "type": "bool"
        }
      ],
      "name": "ApprovalForAll",
      "type": "event"
    },
    {
      "anonymous": false,
      "inputs": [
        {
          "indexed": true,
          "internalType": "address",
          "name": "previousOwner",
          "type": "address"
        },
        {
          "indexed": true,
          "internalType": "address",
          "name": "newOwner",
          "type": "address"
        }
      ],
      "name": "OwnershipTransferred",
      "type": "event"
    },
    {
      "anonymous": false,
      "inputs": [
        {
          "indexed": true,
          "internalType": "address",
          "name": "from",
          "type": "address"
        },
        {
          "indexed": true,
          "internalType": "address",
          "name": "to",
          "type": "address"
        },
        {
          "indexed": true,
          "internalType": "uint256",
          "name": "tokenId",
          "type": "uint256"
        }
      ],
      "name": "Transfer",
      "type": "event"
    },
    {
      "inputs": [
        {
          "internalType": "address",
          "name": "",
          "type": "address"
        },
        {
          "internalType": "uint256",
          "name": "",
          "type": "uint256"
        }
      ],
      "name": "approve",
      "outputs": [],
      "stateMutability": "pure",
      "type": "function"
    },
    {
      "inputs": [
        {
          "internalType": "address",
          "name": "owner",
          "type": "address"
        }
      ],
      "name": "balanceOf",
      "outputs": [
        {
          "internalType": "uint256",
          "name": "",
          "type": "uint256"
        }
      ],
      "stateMutability": "view",
      "type": "function"
    },
    {
      "inputs": [
        {
          "internalType": "uint256",
          "name": "tokenId",
          "type": "uint256"
        }
      ],
      "name": "getApproved",
      "outputs": [
        {
          "internalType": "address",
          "name": "",
          "type": "address"
        }
      ],
      "stateMutability": "view",
      "type": "function"
    },
    {
      "inputs": [
        {
          "internalType": "uint256",
          "name": "tokenId",
          "type": "uint256"
        }
      ],
      "name": "getSBTDetails",
      "outputs": [
        {
          "internalType": "string",
          "name": "name",
          "type": "string"
        },
        {
          "internalType": "uint256",
          "name": "uniqueId",
          "type": "uint256"
        },
        {
          "internalType": "string",
          "name": "metadata",
          "type": "string"
        },
        {
          "internalType": "bool",
          "name": "isRevoked",
          "type": "bool"
        }
      ],
      "stateMutability": "view",
      "type": "function"
    },
    {
      "inputs": [
        {
          "internalType": "address",
          "name": "",
          "type": "address"
        }
      ],
      "name": "hasSBT",
      "outputs": [
        {
          "internalType": "bool",
          "name": "",
          "type": "bool"
        }
      ],
      "stateMutability": "view",
      "type": "function"
    },
    {
      "inputs": [
        {
          "internalType": "address",
          "name": "owner",
          "type": "address"
        },
        {
          "internalType": "address",
          "name": "operator",
          "type": "address"
        }
      ],
      "name": "isApprovedForAll",
      "outputs": [
        {
          "internalType": "bool",
          "name": "",
          "type": "bool"
        }
      ],
      "stateMutability": "view",
      "type": "function"
    },
    {
      "inputs": [
        {
          "internalType": "address",
          "name": "to",
          "type": "address"
        },
        {
          "internalType": "string",
          "name": "name",
          "type": "string"
        },
        {
          "internalType": "uint256",
          "name": "uniqueId",
          "type": "uint256"
        },
        {
          "internalType": "string",
          "name": "metadata",
          "type": "string"
        }
      ],
      "name": "mintSBT",
      "outputs": [],
      "stateMutability": "nonpayable",
      "type": "function"
    },
    {
      "inputs": [],
      "name": "name",
      "outputs": [
        {
          "internalType": "string",
          "name": "",
          "type": "string"
        }
      ],
      "stateMutability": "view",
      "type": "function"
    },
    {
      "inputs": [],
      "name": "owner",
      "outputs": [
        {
          "internalType": "address",
          "name": "",
          "type": "address"
        }
      ],
      "stateMutability": "view",
      "type": "function"
    },
    {
      "inputs": [
        {
          "internalType": "uint256",
          "name": "tokenId",
          "type": "uint256"
        }
      ],
      "name": "ownerOf",
      "outputs": [
        {
          "internalType": "address",
          "name": "",
          "type": "address"
        }
      ],
      "stateMutability": "view",
      "type": "function"
    },
    {
      "inputs": [],
      "name": "renounceOwnership",
      "outputs": [],
      "stateMutability": "nonpayable",
      "type": "function"
    },
    {
      "inputs": [
        {
          "internalType": "uint256",
          "name": "tokenId",
          "type": "uint256"
        }
      ],
      "name": "revokeSBT",
      "outputs": [],
      "stateMutability": "nonpayable",
      "type": "function"
    },
    {
      "inputs": [
        {
          "internalType": "address",
          "name": "from",
          "type": "address"
        },
        {
          "internalType": "address",
          "name": "to",
          "type": "address"
        },
        {
          "internalType": "uint256",
          "name": "tokenId",
          "type": "uint256"
        }
      ],
      "name": "safeTransferFrom",
      "outputs": [],
      "stateMutability": "nonpayable",
      "type": "function"
    },
    {
      "inputs": [
        {
          "internalType": "address",
          "name": "from",
          "type": "address"
        },
        {
          "internalType": "address",
          "name": "to",
          "type": "address"
        },
        {
          "internalType": "uint256",
          "name": "tokenId",
          "type": "uint256"
        },
        {
          "internalType": "bytes",
          "name": "data",
          "type": "bytes"
        }
      ],
      "name": "safeTransferFrom",
      "outputs": [],
      "stateMutability": "nonpayable",
      "type": "function"
    },
    {
      "inputs": [
        {
          "internalType": "address",
          "name": "",
          "type": "address"
        },
        {
          "internalType": "bool",
          "name": "",
          "type": "bool"
        }
      ],
      "name": "setApprovalForAll",
      "outputs": [],
      "stateMutability": "pure",
      "type": "function"
    },
    {
      "inputs": [
        {
          "internalType": "bytes4",
          "name": "interfaceId",
          "type": "bytes4"
        }
      ],
      "name": "supportsInterface",
      "outputs": [
        {
          "internalType": "bool",
          "name": "",
          "type": "bool"
        }
      ],
      "stateMutability": "view",
      "type": "function"
    },
    {
      "inputs": [],
      "name": "symbol",
      "outputs": [
        {
          "internalType": "string",
          "name": "",
          "type": "string"
        }
      ],
      "stateMutability": "view",
      "type": "function"
    },
    {
      "inputs": [
        {
          "internalType": "uint256",
          "name": "tokenId",
          "type": "uint256"
        }
      ],
      "name": "tokenURI",
      "outputs": [
        {
          "internalType": "string",
          "name": "",
          "type": "string"
        }
      ],
      "stateMutability": "view",
      "type": "function"
    },
    {
      "inputs": [
        {
          "internalType": "address",
          "name": "from",
          "type": "address"
        },
        {
          "internalType": "address",
          "name": "to",
          "type": "address"
        },
        {
          "internalType": "uint256",
          "name": "tokenId",
          "type": "uint256"
        }
      ],
      "name": "transferFrom",
      "outputs": [],
      "stateMutability": "nonpayable",
      "type": "function"
    },
    {
      "inputs": [
        {
          "internalType": "address",
          "name": "newOwner",
          "type": "address"
        }
      ],
      "name": "transferOwnership",
      "outputs": [],
      "stateMutability": "nonpayable",
      "type": "function"
    }
  ],
  "bytecode": "0x608060405234801561001057600080fd5b5060405161328d38038061328d83398181016040528101906100329190610272565b806040518060400160405280601181526020017f536f756c626f756e644964656e746974790000000000000000000000000000008152506040518060400160405280600381526020017f534254000000000000000000000000000000000000000000000000000000000081525081600090816100ae91906104ef565b5080600190816100be91906104ef565b505050600073ffffffffffffffffffffffffffffffffffffffff168173ffffffffffffffffffffffffffffffffffffffff16036101335760006040517f1e4fbdf700000000000000000000000000000000000000000000000000000000815260040161012a91906105d0565b60405180910390fd5b6101428161014960201b60201c565b50506105eb565b6000600660009054906101000a900473ffffffffffffffffffffffffffffffffffffffff16905081600660006101000a81548173ffffffffffffffffffffffffffffffffffffffff021916908373ffffffffffffffffffffffffffffffffffffffff1602179055508173ffffffffffffffffffffffffffffffffffffffff168173ffffffffffffffffffffffffffffffffffffffff167f8be0079c531659141344cd1fd0a4f28419497f9722a3daafe3b4186f6b6457e060405160405180910390a35050565b600080fd5b600073ffffffffffffffffffffffffffffffffffffffff82169050919050565b600061023f82610214565b9050919050565b61024f81610234565b811461025a57600080fd5b50565b60008151905061026c81610246565b92915050565b6000602082840312156102885761028761020f565b5b60006102968482850161025d565b91505092915050565b600081519050919050565b7f4e487b7100000000000000000000000000000000000000000000000000000000600052604160045260246000fd5b7f4e487b7100000000000000000000000000000000000000000000000000000000600052602260045260246000fd5b6000600282049050600182168061032057607f821691505b602082108103610333576103326102d9565b5b50919050565b60008190508160005260206000209050919050565b60006020601f8301049050919050565b600082821b905092915050565b60006008830261039b7fffffffffffffffffffffffffffffffffffffffffffffffffffffffffffffffff8261035e565b6103a5868361035e565b95508019841693508086168417925050509392505050565b6000819050919050565b6000819050919050565b60006103ec6103e76103e2846103bd565b6103c7565b6103bd565b9050919050565b6000819050919050565b610406836103d1565b61041a610412826103f3565b84845461036b565b825550505050565b600090565b61042f610422565b61043a8184846103fd565b505050565b5b8181101561045e57610453600082610427565b600181019050610440565b5050565b601f8211156104a35761047481610339565b61047d8461034e565b8101602085101561048c578190505b6104a06104988561034e565b83018261043f565b50505b505050565b600082821c905092915050565b60006104c6600019846008026104a8565b1980831691505092915050565b60006104df83836104b5565b9150826002028217905092915050565b6104f88261029f565b67ffffffffffffffff811115610511576105106102aa565b5b61051b8254610308565b610526828285610462565b600060209050601f8311600181146105595760008415610547578287015190505b61055185826104d3565b8655506105b9565b601f19841661056786610339565b60005b8281101561058f5784890151825560018201915060208501945060208101905061056a565b868310156105ac57848901516105a8601f8916826104b5565b8355505b6001600288020188555050505b505050505050565b6105ca81610234565b82525050565b60006020820190506105e560008301846105c1565b92915050565b612c93806105fa6000396000f3fe608060405234801561001057600080fd5b506004361061012c5760003560e01c8063715018a6116100ad578063a22cb46511610071578063a22cb46514610344578063b88d4fde14610360578063c87b56dd1461037c578063e985e9c5146103ac578063f2fde38b146103dc5761012c565b8063715018a6146102af5780637629e0d4146102b95780638da5cb5b146102ec57806395d89b411461030a578063a1b60059146103285761012c565b806337a28e3b116100f457806337a28e3b146101e757806342842e0e1461020357806356a9c4541461021f5780636352211e1461024f57806370a082311461027f5761012c565b806301ffc9a71461013157806306fdde0314610161578063081812fc1461017f578063095ea7b3146101af57806323b872dd146101cb575b600080fd5b61014b60048036038101906101469190611e17565b6103f8565b6040516101589190611e5f565b60405180910390f35b6101696104da565b6040516101769190611f0a565b60405180910390f35b61019960048036038101906101949190611f62565b61056c565b6040516101a69190611fd0565b60405180910390f35b6101c960048036038101906101c49190612017565b610588565b005b6101e560048036038101906101e09190612057565b6105c3565b005b61020160048036038101906101fc9190611f62565b6106c5565b005b61021d60048036038101906102189190612057565b610747565b005b610239600480360381019061023491906120aa565b610767565b6040516102469190611e5f565b60405180910390f35b61026960048036038101906102649190611f62565b610787565b6040516102769190611fd0565b60405180910390f35b610299600480360381019061029491906120aa565b610799565b6040516102a691906120e6565b60405180910390f35b6102b7610853565b005b6102d360048036038101906102ce9190611f62565b610867565b6040516102e39493929190612101565b60405180910390f35b6102f4610a46565b6040516103019190611fd0565b60405180910390f35b610312610a70565b60405161031f9190611f0a565b60405180910390f35b610342600480360381019061033d9190612289565b610b02565b005b61035e60048036038101906103599190612354565b610caf565b005b61037a60048036038101906103759190612435565b610cea565b005b61039660048036038101906103919190611f62565b610d0f565b6040516103a39190611f0a565b60405180910390f35b6103c660048036038101906103c191906124b8565b610d78565b6040516103d39190611e5f565b60405180910390f35b6103f660048036038101906103f191906120aa565b610e0c565b005b60007f80ac58cd000000000000000000000000000000000000000000000000000000007bffffffffffffffffffffffffffffffffffffffffffffffffffffffff1916827bffffffffffffffffffffffffffffffffffffffffffffffffffffffff191614806104c357507f5b5e139f000000000000000000000000000000000000000000000000000000007bffffffffffffffffffffffffffffffffffffffffffffffffffffffff1916827bffffffffffffffffffffffffffffffffffffffffffffffffffffffff1916145b806104d357506104d282610e92565b5b9050919050565b6060600080546104e990612527565b80601f016020809104026020016040519081016040528092919081815260200182805461051590612527565b80156105625780601f1061053757610100808354040283529160200191610562565b820191906000526020600020905b81548152906001019060200180831161054557829003601f168201915b5050505050905090565b600061057782610efc565b5061058182610f84565b9050919050565b6040517f08c379a00000000000000000000000000000000000000000000000000000000081526004016105ba906125ca565b60405180910390fd5b600073ffffffffffffffffffffffffffffffffffffffff168273ffffffffffffffffffffffffffffffffffffffff16036106355760006040517f64a0ae9200000000000000000000000000000000000000000000000000000000815260040161062c9190611fd0565b60405180910390fd5b60006106498383610644610fc1565b610fc9565b90508373ffffffffffffffffffffffffffffffffffffffff168173ffffffffffffffffffffffffffffffffffffffff16146106bf578382826040517f64283d7b0000000000000000000000000000000000000000000000000000000081526004016106b6939291906125ea565b60405180910390fd5b50505050565b6106cd61110c565b6106d681611193565b610715576040517f08c379a000000000000000000000000000000000000000000000000000000000815260040161070c9061266d565b60405180910390fd5b60016008600083815260200190815260200160002060030160006101000a81548160ff02191690831515021790555050565b61076283838360405180602001604052806000815250610cea565b505050565b60096020528060005260406000206000915054906101000a900460ff1681565b600061079282610efc565b9050919050565b60008073ffffffffffffffffffffffffffffffffffffffff168273ffffffffffffffffffffffffffffffffffffffff160361080c5760006040517f89c62b640000000000000000000000000000000000000000000000000000000081526004016108039190611fd0565b60405180910390fd5b600360008373ffffffffffffffffffffffffffffffffffffffff1673ffffffffffffffffffffffffffffffffffffffff168152602001908152602001600020549050919050565b61085b61110c565b6108656000611220565b565b606060006060600061087885611193565b6108b7576040517f08c379a00000000000000000000000000000000000000000000000000000000081526004016108ae9061266d565b60405180910390fd5b6000600860008781526020019081526020016000206040518060800160405290816000820180546108e790612527565b80601f016020809104026020016040519081016040528092919081815260200182805461091390612527565b80156109605780601f1061093557610100808354040283529160200191610960565b820191906000526020600020905b81548152906001019060200180831161094357829003601f168201915b505050505081526020016001820154815260200160028201805461098390612527565b80601f01602080910402602001604051908101604052809291908181526020018280546109af90612527565b80156109fc5780601f106109d1576101008083540402835291602001916109fc565b820191906000526020600020905b8154815290600101906020018083116109df57829003601f168201915b505050505081526020016003820160009054906101000a900460ff161515151581525050905080600001518160200151826040015183606001519450945094509450509193509193565b6000600660009054906101000a900473ffffffffffffffffffffffffffffffffffffffff16905090565b606060018054610a7f90612527565b80601f0160208091040260200160405190810160405280929190818152602001828054610aab90612527565b8015610af85780601f10610acd57610100808354040283529160200191610af8565b820191906000526020600020905b815481529060010190602001808311610adb57829003601f168201915b5050505050905090565b610b0a61110c565b600960008573ffffffffffffffffffffffffffffffffffffffff1673ffffffffffffffffffffffffffffffffffffffff16815260200190815260200160002060009054906101000a900460ff1615610b97576040517f08c379a0000000000000000000000000000000000000000000000000000000008152600401610b8e906126d9565b60405180910390fd5b60006007549050610ba885826112e6565b604051806080016040528085815260200184815260200183815260200160001515815250600860008381526020019081526020016000206000820151816000019081610bf491906128a5565b50602082015181600101556040820151816002019081610c1491906128a5565b5060608201518160030160006101000a81548160ff0219169083151502179055509050506001600960008773ffffffffffffffffffffffffffffffffffffffff1673ffffffffffffffffffffffffffffffffffffffff16815260200190815260200160002060006101000a81548160ff02191690831515021790555060076000815480929190610ca3906129a6565b91905055505050505050565b6040517f08c379a0000000000000000000000000000000000000000000000000000000008152600401610ce1906125ca565b60405180910390fd5b610cf58484846105c3565b610d09610d00610fc1565b85858585611304565b50505050565b6060610d1a82610efc565b506000610d256114b5565b90506000815111610d455760405180602001604052806000815250610d70565b80610d4f846114cc565b604051602001610d60929190612a2a565b6040516020818303038152906040525b915050919050565b6000600560008473ffffffffffffffffffffffffffffffffffffffff1673ffffffffffffffffffffffffffffffffffffffff16815260200190815260200160002060008373ffffffffffffffffffffffffffffffffffffffff1673ffffffffffffffffffffffffffffffffffffffff16815260200190815260200160002060009054906101000a900460ff16905092915050565b610e1461110c565b600073ffffffffffffffffffffffffffffffffffffffff168173ffffffffffffffffffffffffffffffffffffffff1603610e865760006040517f1e4fbdf7000000000000000000000000000000000000000000000000000000008152600401610e7d9190611fd0565b60405180910390fd5b610e8f81611220565b50565b60007f01ffc9a7000000000000000000000000000000000000000000000000000000007bffffffffffffffffffffffffffffffffffffffffffffffffffffffff1916827bffffffffffffffffffffffffffffffffffffffffffffffffffffffff1916149050919050565b600080610f088361159a565b9050600073ffffffffffffffffffffffffffffffffffffffff168173ffffffffffffffffffffffffffffffffffffffff1603610f7b57826040517f7e273289000000000000000000000000000000000000000000000000000000008152600401610f7291906120e6565b60405180910390fd5b80915050919050565b60006004600083815260200190815260200160002060009054906101000a900473ffffffffffffffffffffffffffffffffffffffff169050919050565b600033905090565b6000803073ffffffffffffffffffffffffffffffffffffffff16636352211e856040518263ffffffff1660e01b815260040161100591906120e6565b602060405180830381865afa92505050801561103f57506040513d601f19601f8201168201806040525081019061103c9190612a63565b60015b61104c5760009050611051565b809150505b600073ffffffffffffffffffffffffffffffffffffffff168173ffffffffffffffffffffffffffffffffffffffff1614806110b85750600073ffffffffffffffffffffffffffffffffffffffff168573ffffffffffffffffffffffffffffffffffffffff16145b6110f7576040517f08c379a00000000000000000000000000000000000000000000000000000000081526004016110ee90612b02565b60405180910390fd5b6111028585856115d7565b9150509392505050565b611114610fc1565b73ffffffffffffffffffffffffffffffffffffffff16611132610a46565b73ffffffffffffffffffffffffffffffffffffffff161461119157611155610fc1565b6040517f118cdaa70000000000000000000000000000000000000000000000000000000081526004016111889190611fd0565b60405180910390fd5b565b60003073ffffffffffffffffffffffffffffffffffffffff16636352211e836040518263ffffffff1660e01b81526004016111ce91906120e6565b602060405180830381865afa92505050801561120857506040513d601f19601f820116820180604052508101906112059190612a63565b60015b611215576000905061121b565b60019150505b919050565b6000600660009054906101000a900473ffffffffffffffffffffffffffffffffffffffff16905081600660006101000a81548173ffffffffffffffffffffffffffffffffffffffff021916908373ffffffffffffffffffffffffffffffffffffffff1602179055508173ffffffffffffffffffffffffffffffffffffffff168173ffffffffffffffffffffffffffffffffffffffff167f8be0079c531659141344cd1fd0a4f28419497f9722a3daafe3b4186f6b6457e060405160405180910390a35050565b6113008282604051806020016040528060008152506117f1565b5050565b60008373ffffffffffffffffffffffffffffffffffffffff163b11156114ae578273ffffffffffffffffffffffffffffffffffffffff1663150b7a02868685856040518563ffffffff1660e01b81526004016113639493929190612b77565b6020604051808303816000875af192505050801561139f57506040513d601f19601f8201168201806040525081019061139c9190612bd8565b60015b611423573d80600081146113cf576040519150601f19603f3d011682016040523d82523d6000602084013e6113d4565b606091505b50600081510361141b57836040517f64a0ae920000000000000000000000000000000000000000000000000000000081526004016114129190611fd0565b60405180910390fd5b805181602001fd5b63150b7a0260e01b7bffffffffffffffffffffffffffffffffffffffffffffffffffffffff1916817bffffffffffffffffffffffffffffffffffffffffffffffffffffffff1916146114ac57836040517f64a0ae920000000000000000000000000000000000000000000000000000000081526004016114a39190611fd0565b60405180910390fd5b505b5050505050565b606060405180602001604052806000815250905090565b6060600060016114db84611815565b01905060008167ffffffffffffffff8111156114fa576114f961215e565b5b6040519080825280601f01601f19166020018201604052801561152c5781602001600182028036833780820191505090505b509050600082602001820190505b60011561158f578080600190039150507f3031323334353637383961626364656600000000000000000000000000000000600a86061a8153600a858161158357611582612c05565b5b0494506000850361153a575b819350505050919050565b60006002600083815260200190815260200160002060009054906101000a900473ffffffffffffffffffffffffffffffffffffffff169050919050565b6000806115e38461159a565b9050600073ffffffffffffffffffffffffffffffffffffffff168373ffffffffffffffffffffffffffffffffffffffff161461162557611624818486611968565b5b600073ffffffffffffffffffffffffffffffffffffffff168173ffffffffffffffffffffffffffffffffffffffff16146116b657611667600085600080611a2c565b6001600360008373ffffffffffffffffffffffffffffffffffffffff1673ffffffffffffffffffffffffffffffffffffffff168152602001908152602001600020600082825403925050819055505b600073ffffffffffffffffffffffffffffffffffffffff168573ffffffffffffffffffffffffffffffffffffffff1614611739576001600360008773ffffffffffffffffffffffffffffffffffffffff1673ffffffffffffffffffffffffffffffffffffffff168152602001908152602001600020600082825401925050819055505b846002600086815260200190815260200160002060006101000a81548173ffffffffffffffffffffffffffffffffffffffff021916908373ffffffffffffffffffffffffffffffffffffffff160217905550838573ffffffffffffffffffffffffffffffffffffffff168273ffffffffffffffffffffffffffffffffffffffff167fddf252ad1be2c89b69c2b068fc378daa952ba7f163c4a11628f55a4df523b3ef60405160405180910390a4809150509392505050565b6117fb8383611bf1565b611810611806610fc1565b6000858585611304565b505050565b600080600090507a184f03e93ff9f4daa797ed6e38ed64bf6a1f0100000000000000008310611873577a184f03e93ff9f4daa797ed6e38ed64bf6a1f010000000000000000838161186957611868612c05565b5b0492506040810190505b6d04ee2d6d415b85acef810000000083106118b0576d04ee2d6d415b85acef810000000083816118a6576118a5612c05565b5b0492506020810190505b662386f26fc1000083106118df57662386f26fc1000083816118d5576118d4612c05565b5b0492506010810190505b6305f5e1008310611908576305f5e10083816118fe576118fd612c05565b5b0492506008810190505b612710831061192d57612710838161192357611922612c05565b5b0492506004810190505b60648310611950576064838161194657611945612c05565b5b0492506002810190505b600a831061195f576001810190505b80915050919050565b611973838383611cea565b611a2757600073ffffffffffffffffffffffffffffffffffffffff168373ffffffffffffffffffffffffffffffffffffffff16036119e857806040517f7e2732890000000000000000000000000000000000000000000000000000000081526004016119df91906120e6565b60405180910390fd5b81816040517f177e802f000000000000000000000000000000000000000000000000000000008152600401611a1e929190612c34565b60405180910390fd5b505050565b8080611a655750600073ffffffffffffffffffffffffffffffffffffffff168273ffffffffffffffffffffffffffffffffffffffff1614155b15611b99576000611a7584610efc565b9050600073ffffffffffffffffffffffffffffffffffffffff168373ffffffffffffffffffffffffffffffffffffffff1614158015611ae057508273ffffffffffffffffffffffffffffffffffffffff168173ffffffffffffffffffffffffffffffffffffffff1614155b8015611af35750611af18184610d78565b155b15611b3557826040517fa9fbf51f000000000000000000000000000000000000000000000000000000008152600401611b2c9190611fd0565b60405180910390fd5b8115611b9757838573ffffffffffffffffffffffffffffffffffffffff168273ffffffffffffffffffffffffffffffffffffffff167f8c5be1e5ebec7d5bd14f71427d1e84f3dd0314c0f7b2291e5b200ac8c7c3b92560405160405180910390a45b505b836004600085815260200190815260200160002060006101000a81548173ffffffffffffffffffffffffffffffffffffffff021916908373ffffffffffffffffffffffffffffffffffffffff16021790555050505050565b600073ffffffffffffffffffffffffffffffffffffffff168273ffffffffffffffffffffffffffffffffffffffff1603611c635760006040517f64a0ae92000000000000000000000000000000000000000000000000000000008152600401611c5a9190611fd0565b60405180910390fd5b6000611c7183836000610fc9565b9050600073ffffffffffffffffffffffffffffffffffffffff168173ffffffffffffffffffffffffffffffffffffffff1614611ce55760006040517f73c6ac6e000000000000000000000000000000000000000000000000000000008152600401611cdc9190611fd0565b60405180910390fd5b505050565b60008073ffffffffffffffffffffffffffffffffffffffff168373ffffffffffffffffffffffffffffffffffffffff1614158015611da257508273ffffffffffffffffffffffffffffffffffffffff168473ffffffffffffffffffffffffffffffffffffffff161480611d635750611d628484610d78565b5b80611da157508273ffffffffffffffffffffffffffffffffffffffff16611d8983610f84565b73ffffffffffffffffffffffffffffffffffffffff16145b5b90509392505050565b6000604051905090565b600080fd5b600080fd5b60007fffffffff0000000000000000000000000000000000000000000000000000000082169050919050565b611df481611dbf565b8114611dff57600080fd5b50565b600081359050611e1181611deb565b92915050565b600060208284031215611e2d57611e2c611db5565b5b6000611e3b84828501611e02565b91505092915050565b60008115159050919050565b611e5981611e44565b82525050565b6000602082019050611e746000830184611e50565b92915050565b600081519050919050565b600082825260208201905092915050565b60005b83811015611eb4578082015181840152602081019050611e99565b60008484015250505050565b6000601f19601f8301169050919050565b6000611edc82611e7a565b611ee68185611e85565b9350611ef6818560208601611e96565b611eff81611ec0565b840191505092915050565b60006020820190508181036000830152611f248184611ed1565b905092915050565b6000819050919050565b611f3f81611f2c565b8114611f4a57600080fd5b50565b600081359050611f5c81611f36565b92915050565b600060208284031215611f7857611f77611db5565b5b6000611f8684828501611f4d565b91505092915050565b600073ffffffffffffffffffffffffffffffffffffffff82169050919050565b6000611fba82611f8f565b9050919050565b611fca81611faf565b82525050565b6000602082019050611fe56000830184611fc1565b92915050565b611ff481611faf565b8114611fff57600080fd5b50565b60008135905061201181611feb565b92915050565b6000806040838503121561202e5761202d611db5565b5b600061203c85828601612002565b925050602061204d85828601611f4d565b9150509250929050565b6000806000606084860312156120705761206f611db5565b5b600061207e86828701612002565b935050602061208f86828701612002565b92505060406120a086828701611f4d565b9150509250925092565b6000602082840312156120c0576120bf611db5565b5b60006120ce84828501612002565b91505092915050565b6120e081611f2c565b82525050565b60006020820190506120fb60008301846120d7565b92915050565b6000608082019050818103600083015261211b8187611ed1565b905061212a60208301866120d7565b818103604083015261213c8185611ed1565b905061214b6060830184611e50565b95945050505050565b600080fd5b600080fd5b7f4e487b7100000000000000000000000000000000000000000000000000000000600052604160045260246000fd5b61219682611ec0565b810181811067ffffffffffffffff821117156121b5576121b461215e565b5b80604052505050565b60006121c8611dab565b90506121d4828261218d565b919050565b600067ffffffffffffffff8211156121f4576121f361215e565b5b6121fd82611ec0565b9050602081019050919050565b82818337600083830152505050565b600061222c612227846121d9565b6121be565b90508281526020810184848401111561224857612247612159565b5b61225384828561220a565b509392505050565b600082601f8301126122705761226f612154565b5b8135612280848260208601612219565b91505092915050565b600080600080608085870312156122a3576122a2611db5565b5b60006122b187828801612002565b945050602085013567ffffffffffffffff8111156122d2576122d1611dba565b5b6122de8782880161225b565b93505060406122ef87828801611f4d565b925050606085013567ffffffffffffffff8111156123105761230f611dba565b5b61231c8782880161225b565b91505092959194509250565b61233181611e44565b811461233c57600080fd5b50565b60008135905061234e81612328565b92915050565b6000806040838503121561236b5761236a611db5565b5b600061237985828601612002565b925050602061238a8582860161233f565b9150509250929050565b600067ffffffffffffffff8211156123af576123ae61215e565b5b6123b882611ec0565b9050602081019050919050565b60006123d86123d384612394565b6121be565b9050828152602081018484840111156123f4576123f3612159565b5b6123ff84828561220a565b509392505050565b600082601f83011261241c5761241b612154565b5b813561242c8482602086016123c5565b91505092915050565b6000806000806080858703121561244f5761244e611db5565b5b600061245d87828801612002565b945050602061246e87828801612002565b935050604061247f87828801611f4d565b925050606085013567ffffffffffffffff8111156124a05761249f611dba565b5b6124ac87828801612407565b91505092959194509250565b600080604083850312156124cf576124ce611db5565b5b60006124dd85828601612002565b92505060206124ee85828601612002565b9150509250929050565b7f4e487b7100000000000000000000000000000000000000000000000000000000600052602260045260246000fd5b6000600282049050600182168061253f57607f821691505b602082108103612552576125516124f8565b5b50919050565b7f536f756c626f756e6420746f6b656e732063616e6e6f7420626520617070726f60008201527f7665640000000000000000000000000000000000000000000000000000000000602082015250565b60006125b4602383611e85565b91506125bf82612558565b604082019050919050565b600060208201905081810360008301526125e3816125a7565b9050919050565b60006060820190506125ff6000830186611fc1565b61260c60208301856120d7565b6126196040830184611fc1565b949350505050565b7f546f6b656e20646f6573206e6f74206578697374000000000000000000000000600082015250565b6000612657601483611e85565b915061266282612621565b602082019050919050565b600060208201905081810360008301526126868161264a565b9050919050565b7f5573657220616c72656164792068617320616e20534254000000000000000000600082015250565b60006126c3601783611e85565b91506126ce8261268d565b602082019050919050565b600060208201905081810360008301526126f2816126b6565b9050919050565b60008190508160005260206000209050919050565b60006020601f8301049050919050565b600082821b905092915050565b60006008830261275b7fffffffffffffffffffffffffffffffffffffffffffffffffffffffffffffffff8261271e565b612765868361271e565b95508019841693508086168417925050509392505050565b6000819050919050565b60006127a261279d61279884611f2c565b61277d565b611f2c565b9050919050565b6000819050919050565b6127bc83612787565b6127d06127c8826127a9565b84845461272b565b825550505050565b600090565b6127e56127d8565b6127f08184846127b3565b505050565b5b81811015612814576128096000826127dd565b6001810190506127f6565b5050565b601f8211156128595761282a816126f9565b6128338461270e565b81016020851015612842578190505b61285661284e8561270e565b8301826127f5565b50505b505050565b600082821c905092915050565b600061287c6000198460080261285e565b1980831691505092915050565b6000612895838361286b565b9150826002028217905092915050565b6128ae82611e7a565b67ffffffffffffffff8111156128c7576128c661215e565b5b6128d18254612527565b6128dc828285612818565b600060209050601f83116001811461290f57600084156128fd578287015190505b6129078582612889565b86555061296f565b601f19841661291d866126f9565b60005b8281101561294557848901518255600182019150602085019450602081019050612920565b86831015612962578489015161295e601f89168261286b565b8355505b6001600288020188555050505b505050505050565b7f4e487b7100000000000000000000000000000000000000000000000000000000600052601160045260246000fd5b60006129b182611f2c565b91507fffffffffffffffffffffffffffffffffffffffffffffffffffffffffffffffff82036129e3576129e2612977565b5b600182019050919050565b600081905092915050565b6000612a0482611e7a565b612a0e81856129ee565b9350612a1e818560208601611e96565b80840191505092915050565b6000612a3682856129f9565b9150612a4282846129f9565b91508190509392505050565b600081519050612a5d81611feb565b92915050565b600060208284031215612a7957612a78611db5565b5b6000612a8784828501612a4e565b91505092915050565b7f536f756c626f756e6420746f6b656e7320617265206e6f6e2d7472616e73666560008201527f7261626c65000000000000000000000000000000000000000000000000000000602082015250565b6000612aec602583611e85565b9150612af782612a90565b604082019050919050565b60006020820190508181036000830152612b1b81612adf565b9050919050565b600081519050919050565b600082825260208201905092915050565b6000612b4982612b22565b612b538185612b2d565b9350612b63818560208601611e96565b612b6c81611ec0565b840191505092915050565b6000608082019050612b8c6000830187611fc1565b612b996020830186611fc1565b612ba660408301856120d7565b8181036060830152612bb88184612b3e565b905095945050505050565b600081519050612bd281611deb565b92915050565b600060208284031215612bee57612bed611db5565b5b6000612bfc84828501612bc3565b91505092915050565b7f4e487b7100000000000000000000000000000000000000000000000000000000600052601260045260246000fd5b6000604082019050612c496000830185611fc1565b612c5660208301846120d7565b939250505056fea26469706673582212203d2d12b9d68b1674257975b3b0fd4bd5004f5a63197e82630691b59c2da31a2664736f6c634300081c0033",
  "linkReferences": {},
  "deployedLinkReferences": {}
}